:020000040800F2
:1000000010040020250E0008410E0008450E0008CF
:10001000490E00084D0E0008510E000800000000B7
:10002000000000000000000000000000550E000865
:10003000590E0008000000005D0E0008D5070008FA
:10004000610E0008650E0008690E00086D0E0008BC
:10005000710E0008750E0008790E00087D0E00086C
:10006000810E0008850E0008890E00088D0E00081C
:10007000910E0008950E0008990E00089D0E0008CC
:10008000A10E0008A50E0008A90E0008AD0E00087C
:10009000B10E0008B50E0008B90E0008BD0E00082C
:1000A000C10E0008C50E0008C90E0008CD0E0008DC
:1000B000D10E0008D50E0008D90E0008DD0E00088C
:1000C000E10E0008E50E0008E90E0008ED0E00083C
:1000D000F10E0008F50E0008F90E0008FD0E0008EC
:1000E000010F0008050F0008090F00080D0F000898
:1000F000110F0008150F0008190F00081D0F000848
:10010000210F0008250F0008290F00082D0F0008F7
:10011000310F0008350F0008390F00083D0F0008A7
:10012000410F0008450F0008490F00084D0F000857
:10013000510F0008550F0008590F00085D0F000807
:10014000610F0008650F0008690F00086D0F0008B7
:10015000710F0008750F0008790F00087D0F000867
:10016000810F0008850F0008890F00088D0F000817
:10017000910F0008950F0008990F0008000000007B
:100180009D0F0008A10F0008A50F0008A90F000887
:10019000AD0F0008B10F0008B50F0008B90F000837
:1001A000BD0F0008C10F0008C50F00082DE9F0477A
:1001B000044682B02078DFF89C6441F28939C00798
:1001C0003DD5B06800F00C00042807D0B06800F0FE
:1001D0000C00082809D17068400206D530688003F9
:1001E0002DD5606858BB01201CE10020B07000F0E4
:1001F00079FA07463068800305D500F073FAC01B12
:100200004845F7D30BE16068B070606858B100F002
:1002100069FA07463068800311D400F063FAC01B06
:100220004845F7D3FBE000F05DFA074630688003ED
:1002300005D500F057FAC01B4845F7D3EFE020780A
:10024000DFF81474800718D5B06810F00C0F07D0D1
:10025000B06800F00C00082827D17068400224D450
:100260003068800702D5E0680128BCD13068216978
:1002700020F0F80040EAC10030602078DFF8DC832D
:1002800000073DD56169DFF8D80359B3012101604A
:1002900000F028FA0546D8F80400800730D400F0B2
:1002A00021FA401B6528F6D3B9E0E06868B1012067
:1002B000386000F017FA054630688007D6D400F0A1
:1002C00011FA401B6528F7D3A9E0386000F00AFA5C
:1002D000054630688007D0D500F004FA401B652839
:1002E000F7D39CE0016000F0FDF90546D8F8040062
:1002F000800705D500F0F6F9401B6528F6D38EE09F
:10030000207840074CD5306CDFF858A340F080507F
:100310003064306C00F0805000900098DAF80000F3
:1003200040F48070CAF8000000F0DCF90546DAF805
:100330000000C00505D400F0D5F9401B6528F6D3B0
:100340006DE0002088F8000000F0CCF90546D8F8F0
:100350000000800705D500F0C5F9401B4845F6D3DD
:100360005DE0A06888F80000A06860B100F0BAF90C
:100370000546D8F80000800712D400F0B3F9401BFE
:100380004845F6D34BE000F0ADF90546D8F800003B
:10039000800705D500F0A6F9401B4845F6D33EE09E
:1003A000A06900283DD0B16801F00C0108293FF494
:1003B0001AAF022828D100F037F8054630688001CE
:1003C00005D500F08FF9401B6528F7D327E0E069D9
:1003D000216A0843616A40EA8110A16A891EC90343
:1003E000090C50EA0140E16A40EA016070600120B6
:1003F00000F01BF804463068800112D400F072F956
:10040000001B6528F7D30AE000F00EF804463068B8
:10041000800106D500F066F9001B6528F7D303209C
:1004200000E00020BDE8F6870020386600F05AB9E9
:100430002DE9F843DFF83042DFF81852064620680D
:100440000F4600F00F0041F28938B84254D22770AD
:10045000206800F00F00B84219D13078800705D528
:10046000A868B16820F0F0000843A8603078C007A1
:1004700040F19D807068012802D12968890305E058
:10048000022818BF032803D12968890103D48CE00E
:1004900029688907FBD500F0A3F807467068012892
:1004A0000AD1A86800F00C0004280BD000F01AF95B
:1004B000C01B4045F5D370E002280AD1A86800F0BF
:1004C0000C00082873D000F00DF9C01B4045F5D38F
:1004D00063E0032806D1A86800F004F9C01B40457A
:1004E000F9D35AE0A86810F00C0F60D000F0FAF8C9
:1004F000C01B4045F6D350E03078800705D5A8688A
:10050000B16820F0F0000843A8603078C00746D5F5
:100510007068012802D12968890305E0022818BF04
:10052000032803D12968890103D43EE0296889079B
:100530003BD500F055F88146706801280BD1A868BA
:1005400000F00C0004282AD000F0CCF8A0EB090041
:100550004045F4D321E002280BD1A86800F00C003C
:1005600008281CD000F0BEF8A0EB09004045F4D3E9
:1005700013E0032807D1A86800F0B4F8A0EB090045
:100580004045F8D309E0A86810F00C0F07D000F040
:10059000A9F8A0EB09004045F5D303201EE0277021
:1005A000206800F00F00B84201D0012016E030783A
:1005B000400705D5A868F16820F4E0500843A8601A
:1005C0003078000706D5A868316920F4604040EA19
:1005D000C100A860002000F073F80020BDE8F2839D
:1005E000A968890850EA8100A86000F07BB810B5BE
:1005F0001F4920484B68204A03F00C03042B02D00B
:10060000082B02D010BD104610BD0B680C6803F01B
:100610003F0364024CBFB2FBF3F0B0FBF3F00A6897
:100620000968C1F30141C2F38812491C50434900D3
:10063000B0FBF1F010BD80B5FFF7D9FF0B4A0FF208
:10064000400312680D49C2F30312D25CD040086027
:10065000086802BD0038024000004742703802407E
:10066000800E474200700040003C024008380240C3
:10067000043802400024F40000127A000000002038
:100680000000000001020304010203040607080938
:1006900080B51648016841F400710160016841F4B9
:1006A00080610160016841F480710160032000F005
:1006B00021F8002000F004F800F078F8002002BDD6
:1006C00010B50446FFF7B7FF4FF47A71B0FBF1F0B5
:1006D00000F044F8002221464FF0FF3000F017F8F8
:1006E000002010BD0248006870470000003C024036
:1006F0000C00002027494FF6FF030A681A4000F05B
:10070000070042EA0020244A10430860704730B5D1
:10071000204B1B68C3F30223C3F10704052C28BF39
:1007200004241D1D072D34BF0023DB1E012505FAFF
:1007300004F4641E2140994005FA03F35B1E1A403D
:1007400011430901002806D500F00F00134A801854
:1007500000F8041C30BD124A815430BD401EB0F177
:10076000807F01D3012070470E49F02248600E4877
:100770000270002088600720086000207047094947
:10078000042808680CBF40F0040020F00400086052
:10079000704700000CED00E00000FA0518ED00E0E5
:1007A00000E400E010E000E023ED00E080B503206D
:1007B000FFF7A0FFBDE80840002200214FF0FF3006
:1007C000FFF7A5BFDFF8C402016811B10168491E37
:1007D00001607047F6E7DFF8B41208600868002887
:1007E000FCD1704770B5032400F047F800F048F8DA
:1007F00000F080F83168012200F044F800F078F849
:10080000641EF3D100F03CF800F072F83168012268
:1008100000F038F800F06EF814241AE070B50B24DC
:1008200000F02BF800F02CF800F064F83168012299
:1008300000F028F800F05CF8641EF3D100F020F816
:1008400000F056F83168012200F01CF800F052F870
:100850000C243168002289B2284600F0FDF90220FC
:10086000FFF7B9FF3168012289B2284600F0F4F998
:1008700000F03EF8641EECD170BD864D864E704788
:100880003168002289B2284600F0E6B970B5132419
:10089000FFF7F3FFFFF7F4FF00F02CF831680122B7
:1008A000FFF7F0FF00F024F8641EF3D1FFF7E8FF34
:1008B00000F01EF831680122FFF7E4FF00F01AF89B
:1008C0000424C6E770B51824724D4FF6FF76002257
:1008D0003146284600F0C0F900F00CF801223146FC
:1008E000284600F0B9F900F003F8641EEFD170BD9E
:1008F000042070E702206EE7FFF7CAFE00F05BF805
:1009000000F0A0F841F28834614D634E042000F0FD
:100910004CF8102000F047F8402000F041F800F0BB
:1009200048F8FFF7CFFF00F042F8102000F038F849
:10093000402000F03AF800F035F800F03AF8FFF700
:10094000C1FF00F034F8402000F02DF8022000F044
:1009500027F8082000F029F800F02BF8FFF7B2FF85
:1009600000F025F800F01EF8082000F019F820200B
:1009700000F01BF800F01DF8FFF7A4FF00F017F8D7
:10098000082000F010F8202000F00AF8802000F085
:100990000CF800F00EF8FFF795FF00F00AF8B5E745
:1009A00030601FE70220306070E7306036E7204695
:1009B00011E728460FE700B5384893B0016841F0C9
:1009C00080510160006800F0805000900098344829
:1009D000016841F440410160006800F4404000902B
:1009E000009801200690079002200C904FF48000A0
:1009F0000D9005200E90E1200F9002201090042011
:100A0000119006A8FFF7D2FB00F044F90D200190E9
:100A100002200290002003904FF4A05004904FF465
:100A200080500590052101A8FFF702FDFFF703FEA6
:100A30001749B0FBF1F0FFF791FE0420FFF79FFE8E
:100A400013B000BD00B5174887B0016841F0200120
:100A50000160016801F0200100910099016841F0F6
:100A60008001016001A9006800F0800000900098FA
:100A70004FF6FE7001900120029000200390049038
:100A8000044800F011F807B000BD00000400002089
:100A9000404B4C0000140240080000204038024047
:100AA00000700040303802402DE9F84700226C4BBE
:100AB000DFF8B081DFF8B0914FF00F0A012707FA95
:100AC00002FC0F680CEA0707674540F0BF804C68DE
:100AD000022C18BF122C10D1D40800EB840E02F0A7
:100AE0000704DEF82050A4000AFA04F6B5430E69A4
:100AF00006FA04F42C43CEF820404FEA420E056873
:100B00000E79032404FA0EF4E44306F003062540AC
:100B100006FA0EF6354305604D68012D18BF022D0B
:100B200003D0112D18BF122D0FD18568CE68254036
:100B300006FA0EF635438560456825EA0C064D68D1
:100B4000C5F30015954035434560C56825408C6860
:100B500004FA0EFE4EEA0504C4604C68E40075D544
:100B6000D9F8004044F48044C9F800404FEA920CA0
:100B7000D9F8004004F48044009402F00305009C7E
:100B800058F82C40AE000AFA06F5AC43374DA8429F
:100B900008BF00252CD0364DA84208BF012527D01C
:100BA000344DA84208BF022522D0334DA84208BFC9
:100BB00003251DD0314DA84208BF042518D0304D63
:100BC000A84208BF052513D02E4DA84208BF062510
:100BD0000ED02D4DA84208BF072509D02B4DA842A5
:100BE00008BF082504D02A4DA8420CBF09250A25B4
:100BF000B5402C4348F82C40FD431C6805EA040E20
:100C00004C68E40348BF47EA0E0EC3F800E05C6896
:100C100005EA040E4C68A40348BF47EA0E0EC3F869
:100C200004E09C6805EA040E4C68E40248BF47EA09
:100C30000E0EC3F808E0DC6805EA040C4C685FEAB5
:100C4000842E48BF47EA0C0CC3F80CC0521C102A73
:100C5000FFF434AFBDE8F18702B909048161704740
:100C6000003C014008380140443802400000024086
:100C70000004024000080240000C02400010024044
:100C80000014024000180240001C024000200240F4
:100C900000240240F8B500F020F801202060FFF7A2
:100CA00021FD00F026F83068C00305D4FFF71AFDD7
:100CB000C01BA842F7D30CE001206060FFF712FDD3
:100CC00007463068800306D4FFF70CFDC01BA8421E
:100CD000F7D30320F2BD0020F2BD0948094C01689A
:100CE00041F080510160006800F080500090009851
:100CF0007047074640F2E935004E704704700040E7
:100D00004038024040000E420B480C4A016841F056
:100D10000101016000218160016811400160084902
:100D20004160016821F4802101600021C1604FF021
:100D3000006104480160704700380240FFFFF6FE82
:100D40001030002408ED00E010B450F8041B81B10D
:100D500002681218001D50F8043BDC0744BFA9F1DB
:100D60000104E31852F8044B43F8044B091FF9D16E
:100D7000EBE710BC704750F8041B61B150F8042B2E
:100D8000D30744BFA9F101039A18002342F8043B9A
:100D9000091FFAD1EFE7704710B5074979441831B8
:100DA000064C7C44163404E0081D0A685118884734
:100DB0000146A142F8D110BD080000002800000043
:100DC000B7FFFFFF0C00000004000020000000003F
:100DD00079FFFFFF04000000F00100000000002088
:100DE0000000000000F009F8002801D0FFF7D4FF50
:100DF0000020FFF781FD00F002F80120704700F0AD
:100E000001B800000746384600F002F8FBE7000092
:100E1000C046C046024A11001820ABBEFBE700BF27
:100E2000260002000148804701480047090D0008DC
:100E3000350E0008C046C046C046C046FFF7D2FF88
:100E4000FFF7FEBFFFF7FEBFFFF7FEBFFFF7FEBFD6
:100E5000FFF7FEBFFFF7FEBFFFF7FEBFFFF7FEBFC6
:100E6000FFF7FEBFFFF7FEBFFFF7FEBFFFF7FEBFB6
:100E7000FFF7FEBFFFF7FEBFFFF7FEBFFFF7FEBFA6
:100E8000FFF7FEBFFFF7FEBFFFF7FEBFFFF7FEBF96
:100E9000FFF7FEBFFFF7FEBFFFF7FEBFFFF7FEBF86
:100EA000FFF7FEBFFFF7FEBFFFF7FEBFFFF7FEBF76
:100EB000FFF7FEBFFFF7FEBFFFF7FEBFFFF7FEBF66
:100EC000FFF7FEBFFFF7FEBFFFF7FEBFFFF7FEBF56
:100ED000FFF7FEBFFFF7FEBFFFF7FEBFFFF7FEBF46
:100EE000FFF7FEBFFFF7FEBFFFF7FEBFFFF7FEBF36
:100EF000FFF7FEBFFFF7FEBFFFF7FEBFFFF7FEBF26
:100F0000FFF7FEBFFFF7FEBFFFF7FEBFFFF7FEBF15
:100F1000FFF7FEBFFFF7FEBFFFF7FEBFFFF7FEBF05
:100F2000FFF7FEBFFFF7FEBFFFF7FEBFFFF7FEBFF5
:100F3000FFF7FEBFFFF7FEBFFFF7FEBFFFF7FEBFE5
:100F4000FFF7FEBFFFF7FEBFFFF7FEBFFFF7FEBFD5
:100F5000FFF7FEBFFFF7FEBFFFF7FEBFFFF7FEBFC5
:100F6000FFF7FEBFFFF7FEBFFFF7FEBFFFF7FEBFB5
:100F7000FFF7FEBFFFF7FEBFFFF7FEBFFFF7FEBFA5
:100F8000FFF7FEBFFFF7FEBFFFF7FEBFFFF7FEBF95
:100F9000FFF7FEBFFFF7FEBFFFF7FEBFFFF7FEBF85
:100FA000FFF7FEBFFFF7FEBFFFF7FEBFFFF7FEBF75
:100FB000FFF7FEBFFFF7FEBFFFF7FEBFFFF7FEBF65
:0C0FC000FFF7FEBFFFF7FEBF0024F400A7
:0400000508000E35AC
:00000001FF
