:020000040800F2
:1000000010040020190F0008350F0008390F0008F0
:100010003D0F0008410F0008450F000800000000D8
:10002000000000000000000000000000490F000870
:100030004D0F000800000000510F0008D507000810
:10004000550F0008590F00085D0F0008610F0008E8
:10005000650F0008690F00086D0F0008710F000898
:10006000750F0008790F00087D0F0008810F000848
:10007000850F0008890F00088D0F0008910F0008F8
:10008000950F0008990F00089D0F0008A10F0008A8
:10009000A50F0008A90F0008AD0F0008B10F000858
:1000A000B50F0008B90F0008BD0F0008C10F000808
:1000B000C50F0008C90F0008CD0F0008D10F0008B8
:1000C000D50F0008D90F0008DD0F0008E10F000868
:1000D000E50F0008E90F0008ED0F0008F10F000818
:1000E000F50F0008F90F0008FD0F000801100008C7
:1000F00005100008091000080D1000081110000874
:1001000015100008191000081D1000082110000823
:1001100025100008291000082D10000831100008D3
:1001200035100008391000083D1000084110000883
:1001300045100008491000084D1000085110000833
:1001400055100008591000085D10000861100008E3
:1001500065100008691000086D1000087110000893
:1001600075100008791000087D1000088110000843
:1001700085100008891000088D100008000000009C
:100180009110000895100008991000089D100008B3
:10019000A1100008A5100008A9100008AD10000863
:1001A000B1100008B5100008B91000082DE9F0479B
:1001B000044682B02078DFF89C6441F28939C00798
:1001C0003DD5B06800F00C00042807D0B06800F0FE
:1001D0000C00082809D17068400206D530688003F9
:1001E0002DD5606858BB01201CE10020B07000F0E4
:1001F00079FA07463068800305D500F073FAC01B12
:100200004845F7D30BE16068B070606858B100F002
:1002100069FA07463068800311D400F063FAC01B06
:100220004845F7D3FBE000F05DFA074630688003ED
:1002300005D500F057FAC01B4845F7D3EFE020780A
:10024000DFF81474800718D5B06810F00C0F07D0D1
:10025000B06800F00C00082827D17068400224D450
:100260003068800702D5E0680128BCD13068216978
:1002700020F0F80040EAC10030602078DFF8DC832D
:1002800000073DD56169DFF8D80359B3012101604A
:1002900000F028FA0546D8F80400800730D400F0B2
:1002A00021FA401B6528F6D3B9E0E06868B1012067
:1002B000386000F017FA054630688007D6D400F0A1
:1002C00011FA401B6528F7D3A9E0386000F00AFA5C
:1002D000054630688007D0D500F004FA401B652839
:1002E000F7D39CE0016000F0FDF90546D8F8040062
:1002F000800705D500F0F6F9401B6528F6D38EE09F
:10030000207840074CD5306CDFF858A340F080507F
:100310003064306C00F0805000900098DAF80000F3
:1003200040F48070CAF8000000F0DCF90546DAF805
:100330000000C00505D400F0D5F9401B6528F6D3B0
:100340006DE0002088F8000000F0CCF90546D8F8F0
:100350000000800705D500F0C5F9401B4845F6D3DD
:100360005DE0A06888F80000A06860B100F0BAF90C
:100370000546D8F80000800712D400F0B3F9401BFE
:100380004845F6D34BE000F0ADF90546D8F800003B
:10039000800705D500F0A6F9401B4845F6D33EE09E
:1003A000A06900283DD0B16801F00C0108293FF494
:1003B0001AAF022828D100F037F8054630688001CE
:1003C00005D500F08FF9401B6528F7D327E0E069D9
:1003D000216A0843616A40EA8110A16A891EC90343
:1003E000090C50EA0140E16A40EA016070600120B6
:1003F00000F01BF804463068800112D400F072F956
:10040000001B6528F7D30AE000F00EF804463068B8
:10041000800106D500F066F9001B6528F7D303209C
:1004200000E00020BDE8F6870020386600F05AB9E9
:100430002DE9F843DFF83042DFF81852064620680D
:100440000F4600F00F0041F28938B84254D22770AD
:10045000206800F00F00B84219D13078800705D528
:10046000A868B16820F0F0000843A8603078C007A1
:1004700040F19D807068012802D12968890305E058
:10048000022818BF032803D12968890103D48CE00E
:1004900029688907FBD500F0A3F807467068012892
:1004A0000AD1A86800F00C0004280BD000F01AF95B
:1004B000C01B4045F5D370E002280AD1A86800F0BF
:1004C0000C00082873D000F00DF9C01B4045F5D38F
:1004D00063E0032806D1A86800F004F9C01B40457A
:1004E000F9D35AE0A86810F00C0F60D000F0FAF8C9
:1004F000C01B4045F6D350E03078800705D5A8688A
:10050000B16820F0F0000843A8603078C00746D5F5
:100510007068012802D12968890305E0022818BF04
:10052000032803D12968890103D43EE0296889079B
:100530003BD500F055F88146706801280BD1A868BA
:1005400000F00C0004282AD000F0CCF8A0EB090041
:100550004045F4D321E002280BD1A86800F00C003C
:1005600008281CD000F0BEF8A0EB09004045F4D3E9
:1005700013E0032807D1A86800F0B4F8A0EB090045
:100580004045F8D309E0A86810F00C0F07D000F040
:10059000A9F8A0EB09004045F5D303201EE0277021
:1005A000206800F00F00B84201D0012016E030783A
:1005B000400705D5A868F16820F4E0500843A8601A
:1005C0003078000706D5A868316920F4604040EA19
:1005D000C100A860002000F073F80020BDE8F2839D
:1005E000A968890850EA8100A86000F07BB810B5BE
:1005F0001F4920484B68204A03F00C03042B02D00B
:10060000082B02D010BD104610BD0B680C6803F01B
:100610003F0364024CBFB2FBF3F0B0FBF3F00A6897
:100620000968C1F30141C2F38812491C50434900D3
:10063000B0FBF1F010BD80B5FFF7D9FF0B4A0FF208
:10064000400312680D49C2F30312D25CD040086027
:10065000086802BD0038024000004742703802407E
:10066000800E474200700040003C024008380240C3
:10067000043802400024F40000127A000000002038
:100680000000000001020304010203040607080938
:1006900080B51648016841F400710160016841F4B9
:1006A00080610160016841F480710160032000F005
:1006B00021F8002000F004F800F078F8002002BDD6
:1006C00010B50446FFF7B7FF4FF47A71B0FBF1F0B5
:1006D00000F044F8002221464FF0FF3000F017F8F8
:1006E000002010BD0248006870470000003C024036
:1006F0000800002027494FF6FF030A681A4000F05F
:10070000070042EA0020244A10430860704730B5D1
:10071000204B1B68C3F30223C3F10704052C28BF39
:1007200004241D1D072D34BF0023DB1E012505FAFF
:1007300004F4641E2140994005FA03F35B1E1A403D
:1007400011430901002806D500F00F00134A801854
:1007500000F8041C30BD124A815430BD401EB0F177
:10076000807F01D3012070470E49F02248600E4877
:100770000270002088600720086000207047094947
:10078000042808680CBF40F0040020F00400086052
:10079000704700000CED00E00000FA0518ED00E0E5
:1007A00000E400E010E000E023ED00E080B503206D
:1007B000FFF7A0FFBDE80840002200214FF0FF3006
:1007C000FFF7A5BFDFF8B803016811B10168491E42
:1007D00001607047F6E7DFF8A81308600868002892
:1007E000FCD1704738B5E84C4FF6FF75012809D1A8
:1007F000002200F01DF80420FFF7EDFF00F017F8CD
:10080000022010E048B9002200F012F80220FFF7A1
:10081000E2FF00F00CF8042005E0022806D100F009
:1008200006F84FF4AF70BDE83240D4E731BD012285
:100830002946204600F08ABAFFF72AFF00F036F971
:1008400000F07BF9CF4C00F02FF900F029F900F00F
:1008500027F900F025F900F023F900F021F900F064
:100860001FF900F01DF900F01BF900F019F900F074
:1008700017F900F015F900F013F900F011F900F084
:100880000FF900F00DF900F00BF900F009F900F094
:1008900007F900F005F900F003F900F001F900F0A4
:1008A000FFF800F0FDF800F0FDF800F0FDF800F0B2
:1008B000F7F800F0F5F800F0F3F800F0F1F800F0C8
:1008C000EFF800F0EDF800F0EBF800F0EDF800F0D4
:1008D000E7F800F0E5F800F0E3F800F0E1F800F0E8
:1008E000DFF800F0DDF800F0DBF800F0D9F800F0F8
:1008F000D7F800F0D5F800F0D3F800F0D1F800F008
:10090000CFF800F0CDF800F0CBF800F0CBF800F015
:10091000C7F800F0C5F800F0C3F800F0C1F800F027
:10092000BFF800F0BDF800F0BBF800F0B9F800F037
:10093000BBF800F0B5F800F0B3F800F0B1F800F043
:10094000AFF800F0ADF800F0ABF800F0A9F800F057
:10095000A7F800F0A5F800F0A3F800F0A1F800F067
:100960009FF800F09DF800F09BF800F099F800F077
:1009700099F800F095F800F093F800F091F800F085
:100980008FF800F08DF800F08BF800F089F800F097
:1009900087F800F089F800F083F800F081F800F0A3
:1009A0007FF800F07DF800F07BF800F079F800F0B7
:1009B00077F800F079F800F073F800F071F800F0C3
:1009C0006FF800F06DF800F06BF800F069F800F0D7
:1009D00067F800F067F800F063F800F061F800F0E5
:1009E0005FF800F05DF800F05BF800F059F800F0F7
:1009F00057F800F055F800F053F800F051F800F007
:100A00004FF800F04DF800F04BF800F049F800F016
:100A100047F800F045F800F047F800F041F800F022
:100A20003FF800F03DF800F03BF800F039F800F036
:100A300037F800F035F800F035F800F035F800F040
:100A40002FF800F02DF800F02BF800F029F800F056
:100A500027F800F025F800F023F800F021F800F066
:100A60001FF800F01DF800F01BF800F019F800F076
:100A700017F800F015F800F013F800F015F800F082
:100A80000FF800F00DF800F00BF800F009F800F096
:100A900007F800F005F800F003F800F003F8D2E6DC
:100AA00000209FE6204696E601209BE600B53748E9
:100AB00093B0016841F080510160006800F08050FF
:100AC000009000983248016841F44041016000689C
:100AD00000F440400090009801200690079002200A
:100AE0000C904FF480000D9005200E90E1200F90A7
:100AF000022010900420119006A8FFF757FB00F089
:100B000043F90D20019002200290002003904FF441
:100B1000A05004904FF480500590052101A8FFF7E4
:100B200087FCFFF788FD1B49B0FBF1F0FFF716FECD
:100B30000420FFF724FE13B000BD00B5164887B0AF
:100B4000016841F020010160016801F0200100917D
:100B50000099016841F08001016001A9006800F07E
:100B60008000009000984FF6FE70019001200290E6
:100B7000002003900490044800F010F807B000BD76
:100B800004000020E070720000140240403802406F
:100B900000700040404B4C00303802402DE9F847CF
:100BA00000226C4BDFF8B081DFF8B0914FF00F0AF4
:100BB000012707FA02FC0F680CEA0707674540F0B7
:100BC000BF804C68022C18BF122C10D1D40800EB47
:100BD000840E02F00704DEF82050A4000AFA04F69E
:100BE000B5430E6906FA04F42C43CEF820404FEAD0
:100BF000420E05680E79032404FA0EF4E44306F06D
:100C00000306254006FA0EF6354305604D68012DB2
:100C100018BF022D03D0112D18BF122D0FD18568DA
:100C2000CE68254006FA0EF635438560456825EA0C
:100C30000C064D68C5F30015954035434560C56801
:100C400025408C6804FA0EFE4EEA0504C4604C6828
:100C5000E40075D5D9F8004044F48044C9F8004058
:100C60004FEA920CD9F8004004F48044009402F05A
:100C70000305009C58F82C40AE000AFA06F5AC4378
:100C8000374DA84208BF00252CD0364DA84208BFDA
:100C9000012527D0344DA84208BF022522D0334D6C
:100CA000A84208BF03251DD0314DA84208BF042526
:100CB00018D0304DA84208BF052513D02E4DA842AC
:100CC00008BF06250ED02D4DA84208BF072509D024
:100CD0002B4DA84208BF082504D02A4DA8420CBFBE
:100CE00009250A25B5402C4348F82C40FD431C68D3
:100CF00005EA040E4C68E40348BF47EA0E0EC3F849
:100D000000E05C6805EA040E4C68A40348BF47EAAB
:100D10000E0EC3F804E09C6805EA040E4C68E40279
:100D200048BF47EA0E0EC3F808E0DC6805EA040C89
:100D30004C685FEA842E48BF47EA0C0CC3F80CC02D
:100D4000521C102AFFF434AFBDE8F18702B9090440
:100D500081617047003C014008380140443802403E
:100D6000000002400004024000080240000C024063
:100D7000001002400014024000180240001C024013
:100D80000020024000240240F8B500F020F80120C5
:100D90002060FFF7A7FC00F026F83068C00305D4F8
:100DA000FFF7A0FCC01BA842F7D30CE00120606055
:100DB000FFF798FC07463068800306D4FFF792FCE3
:100DC000C01BA842F7D30320F2BD0020F2BD0948A2
:100DD000094C016841F080510160006800F08050CA
:100DE000009000987047074640F2E935004E704782
:100DF000047000404038024040000E420B480C4A4C
:100E0000016841F001010160002181600168114029
:100E1000016008494160016821F4802101600021DE
:100E2000C1604FF000610448016070470038024023
:100E3000FFFFF6FE1030002408ED00E010B450F87B
:100E4000041B81B102681218001D50F8043BDC0736
:100E500044BFA9F10104E31852F8044B43F8044BD2
:100E6000091FF9D1EBE710BC704750F8041B61B1C2
:100E700050F8042BD30744BFA9F101039A180023AB
:100E800042F8043B091FFAD1EFE7704710B5074954
:100E900079441831064C7C44163404E0081D0A6875
:100EA000511888470146A142F8D110BD0800000042
:100EB00028000000B7FFFFFF08000000040000202A
:100EC0000000000079FFFFFF04000000F0010000B7
:100ED000000000200000000000F009F8002801D008
:100EE000FFF7D4FF0020FFF7A7FC00F002F8012075
:100EF000704700F001B800000746384600F002F8DD
:100F0000FBE70000C046C046024A11001820ABBEF5
:100F1000FBE700BF26000200014880470148004768
:100F2000FD0D0008290F0008C046C046C046C04657
:100F3000FFF7D2FFFFF7FEBFFFF7FEBFFFF7FEBFD1
:100F4000FFF7FEBFFFF7FEBFFFF7FEBFFFF7FEBFD5
:100F5000FFF7FEBFFFF7FEBFFFF7FEBFFFF7FEBFC5
:100F6000FFF7FEBFFFF7FEBFFFF7FEBFFFF7FEBFB5
:100F7000FFF7FEBFFFF7FEBFFFF7FEBFFFF7FEBFA5
:100F8000FFF7FEBFFFF7FEBFFFF7FEBFFFF7FEBF95
:100F9000FFF7FEBFFFF7FEBFFFF7FEBFFFF7FEBF85
:100FA000FFF7FEBFFFF7FEBFFFF7FEBFFFF7FEBF75
:100FB000FFF7FEBFFFF7FEBFFFF7FEBFFFF7FEBF65
:100FC000FFF7FEBFFFF7FEBFFFF7FEBFFFF7FEBF55
:100FD000FFF7FEBFFFF7FEBFFFF7FEBFFFF7FEBF45
:100FE000FFF7FEBFFFF7FEBFFFF7FEBFFFF7FEBF35
:100FF000FFF7FEBFFFF7FEBFFFF7FEBFFFF7FEBF25
:10100000FFF7FEBFFFF7FEBFFFF7FEBFFFF7FEBF14
:10101000FFF7FEBFFFF7FEBFFFF7FEBFFFF7FEBF04
:10102000FFF7FEBFFFF7FEBFFFF7FEBFFFF7FEBFF4
:10103000FFF7FEBFFFF7FEBFFFF7FEBFFFF7FEBFE4
:10104000FFF7FEBFFFF7FEBFFFF7FEBFFFF7FEBFD4
:10105000FFF7FEBFFFF7FEBFFFF7FEBFFFF7FEBFC4
:10106000FFF7FEBFFFF7FEBFFFF7FEBFFFF7FEBFB4
:10107000FFF7FEBFFFF7FEBFFFF7FEBFFFF7FEBFA4
:10108000FFF7FEBFFFF7FEBFFFF7FEBFFFF7FEBF94
:10109000FFF7FEBFFFF7FEBFFFF7FEBFFFF7FEBF84
:1010A000FFF7FEBFFFF7FEBFFFF7FEBFFFF7FEBF74
:1010B000FFF7FEBFFFF7FEBFFFF7FEBF0024F400FF
:0400000508000F29B7
:00000001FF
