:020000040800F2
:1000000010040020C90B0008E50B0008E90B0008EC
:10001000ED0B0008F10B0008F50B000800000000D4
:10002000000000000000000000000000F90B0008C4
:10003000FD0B000800000000010C00088F090008FB
:10004000050C0008090C00080D0C0008110C000834
:10005000150C0008190C00081D0C0008210C0008E4
:10006000250C0008290C00082D0C0008310C000894
:10007000350C0008390C00083D0C0008410C000844
:10008000450C0008490C00084D0C0008510C0008F4
:10009000550C0008590C00085D0C0008610C0008A4
:1000A000650C0008690C00086D0C0008710C000854
:1000B000750C0008790C00087D0C0008810C000804
:1000C000850C0008890C00088D0C0008910C0008B4
:1000D000950C0008990C00089D0C0008A10C000864
:1000E000A50C0008A90C0008AD0C0008B10C000814
:1000F000B50C0008B90C0008BD0C0008C10C0008C4
:10010000C50C0008C90C0008CD0C0008D10C000873
:10011000D50C0008D90C0008DD0C0008E10C000823
:10012000E50C0008E90C0008ED0C0008F10C0008D3
:10013000F50C0008F90C0008FD0C0008010D000882
:10014000050D0008090D00080D0D0008110D00082F
:10015000150D0008190D00081D0D0008210D0008DF
:10016000250D0008290D00082D0D0008310D00088F
:10017000350D0008390D00083D0D00080000000095
:10018000410D0008450D00082DE9F047044682B0F6
:100190002078DFF89C6441F28939C0073DD5B0680A
:1001A00000F00C00042807D0B06800F00C0008280C
:1001B00009D17068400206D5306880032DD560688B
:1001C00058BB01201CE10020B07000F079FA07460E
:1001D0003068800305D500F073FAC01B4845F7D39B
:1001E0000BE16068B070606858B100F069FA0746CA
:1001F0003068800311D400F063FAC01B4845F7D380
:10020000FBE000F05DFA07463068800305D500F09A
:1002100057FAC01B4845F7D3EFE02078DFF8147495
:10022000800718D5B06810F00C0F07D0B06800F048
:100230000C00082827D17068400224D43068800759
:1002400002D5E0680128BCD13068216920F0F800AF
:1002500040EAC10030602078DFF8DC8300073DD53C
:100260006169DFF8D80359B30121016000F028FA71
:100270000546D8F80400800730D400F021FA401B6E
:100280006528F6D3B9E0E06868B10120386000F075
:1002900017FA054630688007D6D400F011FA401BE3
:1002A0006528F7D3A9E0386000F00AFA05463068FF
:1002B0008007D0D500F004FA401B6528F7D39CE0F6
:1002C000016000F0FDF90546D8F80400800705D567
:1002D00000F0F6F9401B6528F6D38EE02078400741
:1002E0004CD5306CDFF858A340F080503064306C4F
:1002F00000F0805000900098DAF8000040F4807020
:10030000CAF8000000F0DCF90546DAF80000C00584
:1003100005D400F0D5F9401B6528F6D36DE0002028
:1003200088F8000000F0CCF90546D8F800008007F6
:1003300005D500F0C5F9401B4845F6D35DE0A0683F
:1003400088F80000A06860B100F0BAF90546D8F856
:100350000000800712D400F0B3F9401B4845F6D3E3
:100360004BE000F0ADF90546D8F80000800705D550
:1003700000F0A6F9401B4845F6D33EE0A0690028EE
:100380003DD0B16801F00C0108293FF41AAF0228F2
:1003900028D100F037F805463068800105D500F017
:1003A0008FF9401B6528F7D327E0E069216A0843ED
:1003B000616A40EA8110A16A891EC903090C50EAEA
:1003C0000140E16A40EA01607060012000F01BF822
:1003D00004463068800112D400F072F9001B6528D1
:1003E000F7D30AE000F00EF804463068800106D525
:1003F00000F066F9001B6528F7D3032000E0002019
:10040000BDE8F6870020386600F05AB92DE9F843B8
:10041000DFF83042DFF81852064620680F4600F039
:100420000F0041F28938B84254D22770206800F09A
:100430000F00B84219D13078800705D5A868B16897
:1004400020F0F0000843A8603078C00740F19D809C
:100450007068012802D12968890305E0022818BFC5
:10046000032803D12968890103D48CE0296889070E
:10047000FBD500F0A3F80746706801280AD1A868E8
:1004800000F00C0004280BD000F01AF9C01B404506
:10049000F5D370E002280AD1A86800F00C00082803
:1004A00073D000F00DF9C01B4045F5D363E003287D
:1004B00006D1A86800F004F9C01B4045F9D35AE002
:1004C000A86810F00C0F60D000F0FAF8C01B40458F
:1004D000F6D350E03078800705D5A868B16820F0E1
:1004E000F0000843A8603078C00746D5706801283E
:1004F00002D12968890305E0022818BF032803D127
:100500002968890103D43EE0296889073BD500F0BA
:1005100055F88146706801280BD1A86800F00C00DE
:1005200004282AD000F0CCF8A0EB09004045F4D311
:1005300021E002280BD1A86800F00C0008281CD08C
:1005400000F0BEF8A0EB09004045F4D313E0032807
:1005500007D1A86800F0B4F8A0EB09004045F8D333
:1005600009E0A86810F00C0F07D000F0A9F8A0EB84
:1005700009004045F5D303201EE02770206800F0F5
:100580000F00B84201D0012016E03078400705D5B1
:10059000A868F16820F4E0500843A86030780007AC
:1005A00006D5A868316920F4604040EAC100A8601F
:1005B000002000F073F80020BDE8F283A9688908E4
:1005C00050EA8100A86000F07BB810B51F492048B0
:1005D0004B68204A03F00C03042B02D0082B02D0F6
:1005E00010BD104610BD0B680C6803F03F03640299
:1005F0004CBFB2FBF3F0B0FBF3F00A680968C1F33B
:100600000141C2F38812491C50434900B0FBF1F08C
:1006100010BD80B5FFF7D9FF0B4A0FF240031268F7
:100620000D49C2F30312D25CD0400860086802BDD5
:10063000003802400000474270380240800E4742B6
:1006400000700040003C024008380240043802407C
:100650000024F40000127A000000002000000000D6
:1006600001020304010203040607080980B51648C5
:10067000016841F400710160016841F4806101602A
:10068000016841F480710160032000F021F800202E
:1006900000F004F800F078F8002002BD10B5044620
:1006A000FFF7B7FF4FF47A71B0FBF1F000F044F8B8
:1006B000002221464FF0FF3000F017F8002010BD57
:1006C0000248006870470000003C0240080000201B
:1006D00027494FF6FF030A681A4000F0070042EA74
:1006E0000020244A10430860704730B5204B1B6837
:1006F000C3F30223C3F10704052C28BF04241D1DE6
:10070000072D34BF0023DB1E012505FA04F4641E07
:100710002140994005FA03F35B1E1A401143090179
:10072000002806D500F00F00134A801800F8041CBA
:1007300030BD124A815430BD401EB0F1807F01D3DC
:10074000012070470E49F02248600E4802700020D8
:10075000886007200860002070470949042808685D
:100760000CBF40F0040020F0040008607047000057
:100770000CED00E00000FA0518ED00E000E400E0F8
:1007800010E000E023ED00E080B50320FFF7A0FFBC
:10079000BDE80840002200214FF0FF30FFF7A5BF61
:1007A0002DE9F84700226A4BDFF8A881DFF8A8910D
:1007B0004FF00F0A012707FA02FC0F680CEA07073F
:1007C000674540F0BA804C68022C18BF122C10D13B
:1007D000D40800EB840E02F00704DEF82050A400D9
:1007E0000AFA04F6B5430E6906FA04F42C43CEF86F
:1007F00020404FEA420E05680E79032404FA0EF4F5
:10080000E44306F00306254006FA0EF6354305607C
:100810004D68012D18BF022D03D0112D18BF122DC8
:100820000FD18568CE68254006FA0EF635438560FF
:10083000456825EA0C064D68C5F30015954035431B
:100840004560C56825408C6804FA0EFE4EEA050432
:10085000C4604C68E40070D5D9F8004044F480448A
:10086000C9F800404FEA920CD9F8004004F48044E3
:10087000009402F00305009C58F82C40AE000AFAE0
:1008800006F5AC43354DA84208BF002527D0344DAE
:10089000A84208BF012522D0324DA84208BF022538
:1008A0001DD0314DA84208BF032518D02F4DA842B6
:1008B00008BF042513D02E4DA84208BF05250ED031
:1008C0002C4DA84208BF062509D02B4DA84208BFD1
:1008D000072504D0294DA8420CBF08250925B5409D
:1008E0002C4348F82C40FD431C6805EA040E4C6874
:1008F000E40348BF47EA0E0EC3F800E05C6805EA6F
:10090000040E4C68A40348BF47EA0E0EC3F804E087
:100910009C6805EA040E4C68E40248BF47EA0E0EE4
:10092000C3F808E0DC6805EA040C4C685FEA842E32
:1009300048BF47EA0C0CC3F80CC0521C102AFFF445
:1009400039AFBDE8F18702B9090481617047000041
:10095000003C014008380140443802400000024099
:100960000004024000080240000C02400010024057
:100970000014024000180240001C02400020024007
:100980004448016811B10168491E01607047F7E7EA
:100990004049086008680028FCD17047FFF766FEF0
:1009A00000F017F800F05AF83B4C3C4D4FF6FC763F
:1009B000012231462846FFF7C6FF2046FFF7E8FF31
:1009C000002231462846FFF7BEFF2046FFF7E0FF32
:1009D000EEE700B5324893B0016841F08051016004
:1009E000006800F08050009000982E48016841F4A3
:1009F00080410160006800F4804000900098012070
:100A00000690079002200C904FF480000D90052076
:100A10000E90D2200F90022010900420119006A872
:100A2000FFF7B2FB0D2001900220029000200390FE
:100A30004FF4A05004904FF480500590052101A878
:100A4000FFF7E4FCFFF7E5FD1349B0FBF1F0FFF71A
:100A500073FE0420FFF781FE13B000BD00B51248FD
:100A600087B0016841F08001016001A9006800F0D1
:100A70008000009000984FF6FC70019001200290D9
:100A80000390022004900548FFF78AFE07B000BDDE
:100A9000000000000400002000093D00001C02408E
:100AA0004038024000700040303802400B480C4A89
:100AB000016841F00101016000218160016811407D
:100AC000016008494160016821F480210160002132
:100AD000C1604FF000610448016070470038024077
:100AE000FFFFF6FE1030002408ED00E010B450F8CF
:100AF000041B81B102681218001D50F8043BDC078A
:100B000044BFA9F10104E31852F8044B43F8044B25
:100B1000091FF9D1EBE710BC704750F8041B61B115
:100B200050F8042BD30744BFA9F101039A180023FE
:100B300042F8043B091FFAD1EFE7704710B50749A7
:100B400079441831064C7C44163404E0081D0A68C8
:100B5000511888470146A142F8D110BD0800000095
:100B600028000000B7FFFFFF08000000040000207D
:100B70000000000079FFFFFF04000000CC0100002E
:100B8000000000200000000000F009F8002801D05B
:100B9000FFF7D4FF0020FFF701FF00F002F801206B
:100BA000704700F001B800000746384600F002F830
:100BB000FBE70000C046C046024A11001820ABBE49
:100BC000FBE700BF260002000148804701480047BC
:100BD000AD0A0008D90B0008C046C046C046C04652
:100BE000FFF7D2FFFFF7FEBFFFF7FEBFFFF7FEBF25
:100BF000FFF7FEBFFFF7FEBFFFF7FEBFFFF7FEBF29
:100C0000FFF7FEBFFFF7FEBFFFF7FEBFFFF7FEBF18
:100C1000FFF7FEBFFFF7FEBFFFF7FEBFFFF7FEBF08
:100C2000FFF7FEBFFFF7FEBFFFF7FEBFFFF7FEBFF8
:100C3000FFF7FEBFFFF7FEBFFFF7FEBFFFF7FEBFE8
:100C4000FFF7FEBFFFF7FEBFFFF7FEBFFFF7FEBFD8
:100C5000FFF7FEBFFFF7FEBFFFF7FEBFFFF7FEBFC8
:100C6000FFF7FEBFFFF7FEBFFFF7FEBFFFF7FEBFB8
:100C7000FFF7FEBFFFF7FEBFFFF7FEBFFFF7FEBFA8
:100C8000FFF7FEBFFFF7FEBFFFF7FEBFFFF7FEBF98
:100C9000FFF7FEBFFFF7FEBFFFF7FEBFFFF7FEBF88
:100CA000FFF7FEBFFFF7FEBFFFF7FEBFFFF7FEBF78
:100CB000FFF7FEBFFFF7FEBFFFF7FEBFFFF7FEBF68
:100CC000FFF7FEBFFFF7FEBFFFF7FEBFFFF7FEBF58
:100CD000FFF7FEBFFFF7FEBFFFF7FEBFFFF7FEBF48
:100CE000FFF7FEBFFFF7FEBFFFF7FEBFFFF7FEBF38
:100CF000FFF7FEBFFFF7FEBFFFF7FEBFFFF7FEBF28
:100D0000FFF7FEBFFFF7FEBFFFF7FEBFFFF7FEBF17
:100D1000FFF7FEBFFFF7FEBFFFF7FEBFFFF7FEBF07
:100D2000FFF7FEBFFFF7FEBFFFF7FEBFFFF7FEBFF7
:100D3000FFF7FEBFFFF7FEBFFFF7FEBFFFF7FEBFE7
:0C0D4000FFF7FEBFFFF7FEBF0024F40029
:0400000508000BD90B
:00000001FF
