:020000040800F2
:10000000002000205D040008790400087D04000839
:10001000810400088504000889040008000000002D
:100020000000000000000000000000008D04000837
:1000300091040008000000009504000899040008DD
:100040009D040008A1040008A5040008A9040008F4
:10005000AD040008B1040008B5040008B9040008A4
:10006000BD040008C1040008C5040008C904000854
:10007000CD040008D1040008D5040008D904000804
:10008000DD040008E1040008E5040008E9040008B4
:10009000ED040008F1040008F5040008F904000864
:1000A000FD04000801050008050500080905000811
:1000B0000D050008110500081505000819050008C0
:1000C0001D05000821050008250500082905000870
:1000D0002D05000831050008350500083905000820
:1000E0003D050008410500084505000849050008D0
:1000F0004D05000851050008550500085905000880
:100100005D0500086105000865050008690500082F
:100110006D050008710500087505000879050008DF
:100120007D0500088105000885050008890500088F
:100130008D0500089105000895050008990500083F
:100140009D050008A1050008A5050008A9050008EF
:10015000AD050008B1050008B5050008B90500089F
:10016000BD050008C1050008C5050008C90500084F
:10017000CD050008D1050008D5050008D9050008FF
:10018000DD050008E105000881B00021009102E0D2
:100190000099491C00910099444A02FB00F29142E7
:1001A000F6D301B070474248006850F4C07040492F
:1001B00008604048006850F050003E4908603E48E2
:1001C000006870F055303C4908603C48006850F4C5
:1001D00088103A49086000F019F83948008840F45E
:1001E0007F4050F0FC00364908804FF47A70FFF7EA
:1001F000CBFF3448008840F47F4050F0FC00314988
:1002000008804FF47A70FFF7BFFFE6E72E490968D0
:1002100051F001012C4A11602B49096811F00201CB
:10022000401C002902D1B0F5A06FF5D12748006825
:1002300050F00200254908602548254909680160F9
:1002400023482349096801602148006850F4805020
:100250001F4908601F481F49096801601D48006860
:1002600050F009001B4908601A48006850F45250C9
:10027000184908601748006850F4003015490860B4
:100280001148006850F080700F4908600E480068FF
:100290008001FBD50E48006850F002000C49086050
:1002A0000B4800680007FBD570470000B0AD0100A7
:1002B00030380240001C0240081C0240002002406E
:1002C000181C02401A1C024000380240003C024048
:1002D000083802400438024080B54548006850F0B4
:1002E000010043490860434800210160404800681C
:1002F000414908403E4908604048414901603C4846
:10030000006830F480203A4908603E4800210160CE
:1003100000F005F83C485FF00061016001BD82B06B
:1003200000200190002000903148006850F4803097
:100330002F4908602E48006810F4003000900198A2
:10034000401C01900098002803D10198B0F5A04FFF
:10035000F0D127480068800302D50120009001E019
:1003600000200090009801283ED12848006850F0F5
:100370008050264908602648006850F440402449CF
:1003800008601C481B49096801601A48006850F45D
:100390000040184908601748006850F4A0501549FB
:1003A000086016481B4901601148006850F08070D1
:1003B0000F4908600E4800688001FBD5164840F2DE
:1003C000057101600B4800688008800009490860D9
:1003D0000848006850F002000649086005480068B7
:1003E00010F00C000828F9D102B07047000000009E
:1003F0000038024008380240FFFFF6FE0438024091
:10040000103000240C38024008ED00E04038024073
:1004100000700040195A4007003C024000F009F803
:10042000002801D0C046C0460020FFF7BCFE00F007
:1004300002F80120704700F001B800000746384676
:1004400000F002F8FBE70000C046C046024A110077
:100450001820ABBEFBE700BF260002000148804722
:1004600001480047D90200086D040008C046C04694
:10047000C046C046FFF7D2FFFFF7FEBFFFF7FEBF43
:10048000FFF7FEBFFFF7FEBFFFF7FEBFFFF7FEBFA0
:10049000FFF7FEBFFFF7FEBFFFF7FEBFFFF7FEBF90
:1004A000FFF7FEBFFFF7FEBFFFF7FEBFFFF7FEBF80
:1004B000FFF7FEBFFFF7FEBFFFF7FEBFFFF7FEBF70
:1004C000FFF7FEBFFFF7FEBFFFF7FEBFFFF7FEBF60
:1004D000FFF7FEBFFFF7FEBFFFF7FEBFFFF7FEBF50
:1004E000FFF7FEBFFFF7FEBFFFF7FEBFFFF7FEBF40
:1004F000FFF7FEBFFFF7FEBFFFF7FEBFFFF7FEBF30
:10050000FFF7FEBFFFF7FEBFFFF7FEBFFFF7FEBF1F
:10051000FFF7FEBFFFF7FEBFFFF7FEBFFFF7FEBF0F
:10052000FFF7FEBFFFF7FEBFFFF7FEBFFFF7FEBFFF
:10053000FFF7FEBFFFF7FEBFFFF7FEBFFFF7FEBFEF
:10054000FFF7FEBFFFF7FEBFFFF7FEBFFFF7FEBFDF
:10055000FFF7FEBFFFF7FEBFFFF7FEBFFFF7FEBFCF
:10056000FFF7FEBFFFF7FEBFFFF7FEBFFFF7FEBFBF
:10057000FFF7FEBFFFF7FEBFFFF7FEBFFFF7FEBFAF
:10058000FFF7FEBFFFF7FEBFFFF7FEBFFFF7FEBF9F
:10059000FFF7FEBFFFF7FEBFFFF7FEBFFFF7FEBF8F
:1005A000FFF7FEBFFFF7FEBFFFF7FEBFFFF7FEBF7F
:1005B000FFF7FEBFFFF7FEBFFFF7FEBFFFF7FEBF6F
:1005C000FFF7FEBFFFF7FEBFFFF7FEBFFFF7FEBF5F
:1005D000FFF7FEBFFFF7FEBFFFF7FEBFFFF7FEBF4F
:0405E000FFF7FEBF64
:040000050800046D7E
:00000001FF
