:020000040800F2
:100000000020002011010008EF000008EF000008A8
:10001000EF000008EF000008EF00000800000000FB
:10002000000000000000000000000000EF000008D9
:10003000EF00000800000000EF000008EF000008DB
:1000400001B402E00098401E009000980028F9D109
:1000500001B070471948006840F2FF110843174982
:1000600008601748006850F0553015490860154879
:10007000006850F05530134908601348006850F08C
:100080000C00114908601148006850F4A0600F4945
:1000900008604EF66020FFF7D3FF0B48006850F46D
:1000A0004020094908600948006850F0A0600749ED
:1000B00008604EF66020FFF7C3FFDEE730380240ED
:1000C000001C024000200240181C02401820024080
:1000D00000F009F8002801D0C046C0460020FFF714
:1000E000B9FF00F002F80120704700F001B8FEE708
:1000F0000746384600F002F8FBE70000C046C0465D
:10010000024A11001820ABBEFBE700BF2600020028
:0C011000C046C046C046C046FFF7DAFFFC
:0400000508000111DD
:00000001FF
