:020000040800F2
:1000000000200020A9030008C5030008C903000858
:10001000CD030008D1030008D5030008000000004C
:10002000000000000000000000000000D9030008EC
:10003000DD03000800000000E1030008E5030008FC
:10004000E9030008ED030008F1030008F5030008C8
:10005000F9030008FD030008010400080504000876
:10006000090400080D040008110400081504000824
:10007000190400081D0400082104000825040008D4
:10008000290400082D040008310400083504000884
:10009000390400083D040008410400084504000834
:1000A000490400084D0400085104000855040008E4
:1000B000590400085D040008610400086504000894
:1000C000690400086D040008710400087504000844
:1000D000790400087D0400088104000885040008F4
:1000E000890400088D0400089104000895040008A4
:1000F000990400089D040008A1040008A504000854
:10010000A9040008AD040008B1040008B504000803
:10011000B9040008BD040008C1040008C5040008B3
:10012000C9040008CD040008D1040008D504000863
:10013000D9040008DD040008E1040008E504000813
:10014000E9040008ED040008F1040008F5040008C3
:10015000F9040008FD040008010500080505000871
:10016000090500080D05000811050008150500081F
:10017000190500081D0500082105000825050008CF
:10018000290500082D05000880B54548006850F095
:10019000010043490860434800210160404800686D
:1001A000414908403E4908604048414901603C4897
:1001B000006830F480203A4908603E480021016020
:1001C00000F005F83C485FF00061016001BD82B0BD
:1001D00000200190002000903148006850F48030E9
:1001E0002F4908602E48006810F4003000900198F4
:1001F000401C01900098002803D10198B0F5A04F51
:10020000F0D127480068800302D50120009001E06A
:1002100000200090009801283ED12848006850F046
:100220008050264908602648006850F44040244920
:1002300008601C481B49096801601A48006850F4AE
:100240000040184908601748006850F4A05015494C
:10025000086016481B4901601148006850F0807022
:100260000F4908600E4800688001FBD5164840F22F
:10027000057101600B48006880088000094908602A
:100280000848006850F00200064908600548006808
:1002900010F00C000828F9D102B0704700000000EF
:1002A0000038024008380240FFFFF6FE04380240E2
:1002B000103000240C38024008ED00E040380240C5
:1002C00000700040195A4007003C024081B00021F4
:1002D000009102E00099491C009100998142F9D3F4
:1002E00001B070471848006850F4C07016490860A3
:1002F0001648006850F0500014490860144800681F
:1003000050F48810124908601248008850F00C0020
:10031000104908801048008850F4A0600E490880F9
:100320000E48FFF7D3FF0E48008850F00C000C4930
:1003300008800C48008850F4A0600A4908800748EB
:10034000FFF7C4FFE0E7000030380240001C024025
:1003500000200240181C024018200240809698009D
:100360001A1C02401A20024000F009F8002801D0AF
:10037000C046C0460020FFF7B5FF00F002F801209C
:10038000704700F001B800000746384600F002F858
:10039000FBE70000C046C046024A11001820ABBE71
:1003A000FBE700BF260002000148804701480047E4
:1003B00089010008B9030008C046C046C046C046CF
:1003C000FFF7D2FFFFF7FEBFFFF7FEBFFFF7FEBF4D
:1003D000FFF7FEBFFFF7FEBFFFF7FEBFFFF7FEBF51
:1003E000FFF7FEBFFFF7FEBFFFF7FEBFFFF7FEBF41
:1003F000FFF7FEBFFFF7FEBFFFF7FEBFFFF7FEBF31
:10040000FFF7FEBFFFF7FEBFFFF7FEBFFFF7FEBF20
:10041000FFF7FEBFFFF7FEBFFFF7FEBFFFF7FEBF10
:10042000FFF7FEBFFFF7FEBFFFF7FEBFFFF7FEBF00
:10043000FFF7FEBFFFF7FEBFFFF7FEBFFFF7FEBFF0
:10044000FFF7FEBFFFF7FEBFFFF7FEBFFFF7FEBFE0
:10045000FFF7FEBFFFF7FEBFFFF7FEBFFFF7FEBFD0
:10046000FFF7FEBFFFF7FEBFFFF7FEBFFFF7FEBFC0
:10047000FFF7FEBFFFF7FEBFFFF7FEBFFFF7FEBFB0
:10048000FFF7FEBFFFF7FEBFFFF7FEBFFFF7FEBFA0
:10049000FFF7FEBFFFF7FEBFFFF7FEBFFFF7FEBF90
:1004A000FFF7FEBFFFF7FEBFFFF7FEBFFFF7FEBF80
:1004B000FFF7FEBFFFF7FEBFFFF7FEBFFFF7FEBF70
:1004C000FFF7FEBFFFF7FEBFFFF7FEBFFFF7FEBF60
:1004D000FFF7FEBFFFF7FEBFFFF7FEBFFFF7FEBF50
:1004E000FFF7FEBFFFF7FEBFFFF7FEBFFFF7FEBF40
:1004F000FFF7FEBFFFF7FEBFFFF7FEBFFFF7FEBF30
:10050000FFF7FEBFFFF7FEBFFFF7FEBFFFF7FEBF1F
:10051000FFF7FEBFFFF7FEBFFFF7FEBFFFF7FEBF0F
:10052000FFF7FEBFFFF7FEBFFFF7FEBFFFF7FEBFFF
:04000005080003B933
:00000001FF
