:020000040800F2
:100000000020002011010008EF000008EF000008A8
:10001000EF000008EF000008EF00000800000000FB
:10002000000000000000000000000000EF000008D9
:10003000EF00000800000000EF000008EF000008DB
:1000400001B402E00098401E009000980028F9D109
:1000500001B070471848006840F2FF110843164984
:1000600008601648006850F055301449086014487C
:10007000006850F05530124908601248006850F08E
:100080000C00104908601048006850F4A0600E4948
:1000900008600E48FFF7D4FF0A48006850F440207B
:1000A000084908600848006850F0A06006490860E8
:1000B0000648FFF7C5FFE0E730380240001C024069
:1000C00000200240181C024018200240C0270900EE
:1000D00000F009F8002801D0C046C0460020FFF714
:1000E000B9FF00F002F80120704700F001B8FEE708
:1000F0000746384600F002F8FBE70000C046C0465D
:10010000024A11001820ABBEFBE700BF2600020028
:0C011000C046C046C046C046FFF7DAFFFC
:0400000508000111DD
:00000001FF
